{
  "abi": [
    {
      "anonymous": false,
      "inputs": [
        {
          "indexed": true,
          "internalType": "address",
          "name": "from",
          "type": "address"
        },
        {
          "indexed": true,
          "internalType": "address",
          "name": "to",
          "type": "address"
        },
        {
          "indexed": false,
          "internalType": "uint256",
          "name": "amount",
          "type": "uint256"
        }
      ],
      "name": "Transfer",
      "type": "event"
    },
    {
      "inputs": [
        {
          "internalType": "address",
          "name": "from",
          "type": "address"
        },
        {
          "internalType": "address",
          "name": "to",
          "type": "address"
        },
        {
          "internalType": "uint256",
          "name": "amount",
          "type": "uint256"
        }
      ],
      "name": "transfer",
      "outputs": [],
      "stateMutability": "nonpayable",
      "type": "function"
    },
    {
      "inputs": [
        {
          "internalType": "address",
          "name": "from",
          "type": "address"
        },
        {
          "internalType": "address[]",
          "name": "to",
          "type": "address[]"
        },
        {
          "internalType": "uint256[]",
          "name": "amounts",
          "type": "uint256[]"
        }
      ],
      "name": "transferMany",
      "outputs": [],
      "stateMutability": "nonpayable",
      "type": "function"
    }
  ],
  "bytecode": {
    "object": "0x608060405234801561001057600080fd5b5061031f806100206000396000f3fe608060405234801561001057600080fd5b50600436106100365760003560e01c80631a9d4dc91461003b578063beabacc814610050575b600080fd5b61004e6100493660046101cd565b610063565b005b61004e61005e36600461024e565b610113565b60005b8381101561010b578484828181106100805761008061028a565b905060200201602081019061009591906102a0565b6001600160a01b0316866001600160a01b03167fddf252ad1be2c89b69c2b068fc378daa952ba7f163c4a11628f55a4df523b3ef8585858181106100db576100db61028a565b905060200201356040516100f191815260200190565b60405180910390a380610103816102c2565b915050610066565b505050505050565b816001600160a01b0316836001600160a01b03167fddf252ad1be2c89b69c2b068fc378daa952ba7f163c4a11628f55a4df523b3ef8360405161015891815260200190565b60405180910390a3505050565b80356001600160a01b038116811461017c57600080fd5b919050565b60008083601f84011261019357600080fd5b50813567ffffffffffffffff8111156101ab57600080fd5b6020830191508360208260051b85010111156101c657600080fd5b9250929050565b6000806000806000606086880312156101e557600080fd5b6101ee86610165565b9450602086013567ffffffffffffffff8082111561020b57600080fd5b61021789838a01610181565b9096509450604088013591508082111561023057600080fd5b5061023d88828901610181565b969995985093965092949392505050565b60008060006060848603121561026357600080fd5b61026c84610165565b925061027a60208501610165565b9150604084013590509250925092565b634e487b7160e01b600052603260045260246000fd5b6000602082840312156102b257600080fd5b6102bb82610165565b9392505050565b6000600182016102e257634e487b7160e01b600052601160045260246000fd5b506001019056fea2646970667358221220ff4978125bf4f353f5d51799bc7518d3a3742cae35b96675e535c2475b0cf80964736f6c63430008130033",
    "linkReferences": {}
  },
  "methodIdentifiers": {
    "transfer(address,address,uint256)": "beabacc8",
    "transferMany(address,address[],uint256[])": "1a9d4dc9"
  },
  "id": 17
}