{
  "abi": [
    {
      "inputs": [],
      "stateMutability": "payable",
      "type": "constructor"
    },
    {
      "inputs": [],
      "name": "owner",
      "outputs": [
        {
          "internalType": "address payable",
          "name": "",
          "type": "address"
        }
      ],
      "stateMutability": "view",
      "type": "function"
    },
    {
      "inputs": [
        {
          "internalType": "address",
          "name": "_owner",
          "type": "address"
        }
      ],
      "name": "setOwner",
      "outputs": [],
      "stateMutability": "nonpayable",
      "type": "function"
    },
    {
      "inputs": [
        {
          "internalType": "uint256",
          "name": "_amount",
          "type": "uint256"
        }
      ],
      "name": "withdraw",
      "outputs": [],
      "stateMutability": "nonpayable",
      "type": "function"
    },
    {
      "stateMutability": "payable",
      "type": "receive"
    }
  ],
  "bytecode": {
    "object": "0x6080604052600080546001600160a01b03191633179055610239806100256000396000f3fe6080604052600436106100385760003560e01c806313af4035146100445780632e1a7d4d146100665780638da5cb5b1461008657600080fd5b3661003f57005b600080fd5b34801561005057600080fd5b5061006461005f3660046101ba565b6100c2565b005b34801561007257600080fd5b506100646100813660046101ea565b610139565b34801561009257600080fd5b506000546100a6906001600160a01b031681565b6040516001600160a01b03909116815260200160405180910390f35b6000546001600160a01b031633146101175760405162461bcd60e51b815260206004820152601360248201527231b0b63632b91034b9903737ba1037bbb732b960691b60448201526064015b60405180910390fd5b600080546001600160a01b0319166001600160a01b0392909216919091179055565b6000546001600160a01b031633146101895760405162461bcd60e51b815260206004820152601360248201527231b0b63632b91034b9903737ba1037bbb732b960691b604482015260640161010e565b604051339082156108fc029083906000818181858888f193505050501580156101b6573d6000803e3d6000fd5b5050565b6000602082840312156101cc57600080fd5b81356001600160a01b03811681146101e357600080fd5b9392505050565b6000602082840312156101fc57600080fd5b503591905056fea26469706673582212201522c13519d33f5dc1ddb97f2734e2293165ae3cf3fc04a5cfddb373609f047864736f6c63430008130033",
    "linkReferences": {}
  },
  "methodIdentifiers": {
    "owner()": "8da5cb5b",
    "setOwner(address)": "13af4035",
    "withdraw(uint256)": "2e1a7d4d"
  },
  "id": 17
}