{
  "abi": [
    {
      "inputs": [],
      "name": "NotAuthorized",
      "type": "error"
    },
    {
      "inputs": [],
      "name": "throwCustomError",
      "outputs": [],
      "stateMutability": "nonpayable",
      "type": "function"
    },
    {
      "inputs": [],
      "name": "throwError",
      "outputs": [],
      "stateMutability": "nonpayable",
      "type": "function"
    }
  ],
  "bytecode": {
    "object": "0x608060405234801561001057600080fd5b5060d18061001f6000396000f3fe6080604052348015600f57600080fd5b506004361060325760003560e01c80632f7643a8146037578063c1e2603314603f575b600080fd5b603d6045565b005b603d6082565b60405162461bcd60e51b815260206004820152600e60248201526d1b9bdd08185d5d1a1bdc9a5e995960921b604482015260640160405180910390fd5b60405163ea8e4eb560e01b815260040160405180910390fdfea2646970667358221220d7d2d211bb17dcbaddcb940504f02ea61b693119ca104f9c7952823dec01789b64736f6c63430008130033",
    "linkReferences": {}
  },
  "methodIdentifiers": {
    "throwCustomError()": "c1e26033",
    "throwError()": "2f7643a8"
  },
  "id": 17
}