{
  "abi": [
    {
      "inputs": [
        {
          "internalType": "uint256",
          "name": "_totalSupply",
          "type": "uint256"
        }
      ],
      "stateMutability": "payable",
      "type": "constructor"
    },
    {
      "anonymous": false,
      "inputs": [
        {
          "indexed": true,
          "internalType": "address",
          "name": "owner",
          "type": "address"
        },
        {
          "indexed": true,
          "internalType": "address",
          "name": "spender",
          "type": "address"
        },
        {
          "indexed": false,
          "internalType": "uint256",
          "name": "value",
          "type": "uint256"
        }
      ],
      "name": "Approval",
      "type": "event"
    },
    {
      "anonymous": false,
      "inputs": [
        {
          "indexed": false,
          "internalType": "string",
          "name": "func",
          "type": "string"
        },
        {
          "indexed": false,
          "internalType": "address",
          "name": "sender",
          "type": "address"
        },
        {
          "indexed": false,
          "internalType": "uint256",
          "name": "value",
          "type": "uint256"
        },
        {
          "indexed": false,
          "internalType": "bytes",
          "name": "data",
          "type": "bytes"
        }
      ],
      "name": "Log",
      "type": "event"
    },
    {
      "anonymous": false,
      "inputs": [
        {
          "indexed": true,
          "internalType": "address",
          "name": "from",
          "type": "address"
        },
        {
          "indexed": true,
          "internalType": "address",
          "name": "to",
          "type": "address"
        },
        {
          "indexed": false,
          "internalType": "uint256",
          "name": "value",
          "type": "uint256"
        }
      ],
      "name": "Transfer",
      "type": "event"
    },
    {
      "inputs": [
        {
          "internalType": "address",
          "name": "",
          "type": "address"
        },
        {
          "internalType": "address",
          "name": "",
          "type": "address"
        }
      ],
      "name": "allowance",
      "outputs": [
        {
          "internalType": "uint256",
          "name": "",
          "type": "uint256"
        }
      ],
      "stateMutability": "view",
      "type": "function"
    },
    {
      "inputs": [
        {
          "internalType": "address",
          "name": "spender",
          "type": "address"
        },
        {
          "internalType": "uint256",
          "name": "amount",
          "type": "uint256"
        }
      ],
      "name": "approve",
      "outputs": [
        {
          "internalType": "bool",
          "name": "",
          "type": "bool"
        }
      ],
      "stateMutability": "nonpayable",
      "type": "function"
    },
    {
      "inputs": [
        {
          "internalType": "address",
          "name": "",
          "type": "address"
        }
      ],
      "name": "balanceOf",
      "outputs": [
        {
          "internalType": "uint256",
          "name": "",
          "type": "uint256"
        }
      ],
      "stateMutability": "view",
      "type": "function"
    },
    {
      "inputs": [
        {
          "internalType": "uint256",
          "name": "amount",
          "type": "uint256"
        }
      ],
      "name": "burn",
      "outputs": [],
      "stateMutability": "nonpayable",
      "type": "function"
    },
    {
      "inputs": [],
      "name": "decimal",
      "outputs": [
        {
          "internalType": "uint8",
          "name": "",
          "type": "uint8"
        }
      ],
      "stateMutability": "view",
      "type": "function"
    },
    {
      "inputs": [
        {
          "internalType": "uint256",
          "name": "amount",
          "type": "uint256"
        }
      ],
      "name": "deposit",
      "outputs": [],
      "stateMutability": "payable",
      "type": "function"
    },
    {
      "inputs": [],
      "name": "getBalance",
      "outputs": [
        {
          "internalType": "uint256",
          "name": "",
          "type": "uint256"
        }
      ],
      "stateMutability": "view",
      "type": "function"
    },
    {
      "inputs": [
        {
          "internalType": "uint256",
          "name": "amount",
          "type": "uint256"
        }
      ],
      "name": "mint",
      "outputs": [],
      "stateMutability": "nonpayable",
      "type": "function"
    },
    {
      "inputs": [],
      "name": "name",
      "outputs": [
        {
          "internalType": "string",
          "name": "",
          "type": "string"
        }
      ],
      "stateMutability": "view",
      "type": "function"
    },
    {
      "inputs": [
        {
          "internalType": "address payable",
          "name": "_to",
          "type": "address"
        }
      ],
      "name": "sendViaTransfer",
      "outputs": [],
      "stateMutability": "payable",
      "type": "function"
    },
    {
      "inputs": [],
      "name": "symbol",
      "outputs": [
        {
          "internalType": "string",
          "name": "",
          "type": "string"
        }
      ],
      "stateMutability": "view",
      "type": "function"
    },
    {
      "inputs": [],
      "name": "totalSupply",
      "outputs": [
        {
          "internalType": "uint256",
          "name": "",
          "type": "uint256"
        }
      ],
      "stateMutability": "view",
      "type": "function"
    },
    {
      "inputs": [
        {
          "internalType": "address",
          "name": "recipient",
          "type": "address"
        },
        {
          "internalType": "uint256",
          "name": "amount",
          "type": "uint256"
        }
      ],
      "name": "transfer",
      "outputs": [
        {
          "internalType": "bool",
          "name": "",
          "type": "bool"
        }
      ],
      "stateMutability": "nonpayable",
      "type": "function"
    },
    {
      "inputs": [
        {
          "internalType": "address",
          "name": "sender",
          "type": "address"
        },
        {
          "internalType": "address",
          "name": "recipient",
          "type": "address"
        },
        {
          "internalType": "uint256",
          "name": "amount",
          "type": "uint256"
        }
      ],
      "name": "transferFrom",
      "outputs": [
        {
          "internalType": "bool",
          "name": "",
          "type": "bool"
        }
      ],
      "stateMutability": "nonpayable",
      "type": "function"
    },
    {
      "inputs": [
        {
          "internalType": "uint256",
          "name": "amount",
          "type": "uint256"
        }
      ],
      "name": "withdraw",
      "outputs": [],
      "stateMutability": "nonpayable",
      "type": "function"
    },
    {
      "stateMutability": "payable",
      "type": "receive"
    }
  ],
  "bytecode": {
    "object": "0x60c060405260096080908152684c617965724b696e6760b81b60a0526003906100289082610125565b506040805180820190915260038152621312d560ea1b60208201526004906100509082610125565b506005805460ff1916601217905560405162000b603881900390819083398101604081905261007e916101e4565b6000556101fd565b634e487b7160e01b600052604160045260246000fd5b600181811c908216806100b057607f821691505b6020821081036100d057634e487b7160e01b600052602260045260246000fd5b50919050565b601f82111561012057600081815260208120601f850160051c810160208610156100fd5750805b601f850160051c820191505b8181101561011c57828155600101610109565b5050505b505050565b81516001600160401b0381111561013e5761013e610086565b6101528161014c845461009c565b846100d6565b602080601f831160018114610187576000841561016f5750858301515b600019600386901b1c1916600185901b17855561011c565b600085815260208120601f198616915b828110156101b657888601518255948401946001909101908401610197565b50858210156101d45787850151600019600388901b60f8161c191681555b5050505050600190811b01905550565b6000602082840312156101f657600080fd5b5051919050565b610953806200020d6000396000f3fe6080604052600436106100ec5760003560e01c8063636e082b1161008a578063a0712d6811610059578063a0712d68146102ce578063a9059cbb146102ee578063b6b55f251461030e578063dd62ed3e1461032157600080fd5b8063636e082b1461024d57806370a082311461026057806376809ce31461028d57806395d89b41146102b957600080fd5b806318160ddd116100c657806318160ddd146101d557806323b872dd146101eb5780632e1a7d4d1461020b57806342966c681461022d57600080fd5b806306fdde031461015d578063095ea7b31461018857806312065fe0146101b857600080fd5b3661015857604080516080808252600790820152667265766569766560c81b60a0820152336020820152348183015260c06060820181905260009082015290517ff7f75251dee7d7fc22deac3247729ebe7c86541f35930bf10c2a4207479a3b6c9181900360e00190a1005b600080fd5b34801561016957600080fd5b50610172610359565b60405161017f9190610741565b60405180910390f35b34801561019457600080fd5b506101a86101a33660046107a4565b6103e7565b604051901515815260200161017f565b3480156101c457600080fd5b50475b60405190815260200161017f565b3480156101e157600080fd5b506101c760005481565b3480156101f757600080fd5b506101a86102063660046107d0565b610454565b34801561021757600080fd5b5061022b610226366004610811565b61052f565b005b34801561023957600080fd5b5061022b610248366004610811565b610581565b61022b61025b36600461082a565b6105e7565b34801561026c57600080fd5b506101c761027b36600461082a565b60016020526000908152604090205481565b34801561029957600080fd5b506005546102a79060ff1681565b60405160ff909116815260200161017f565b3480156102c557600080fd5b50610172610620565b3480156102da57600080fd5b5061022b6102e9366004610811565b61062d565b3480156102fa57600080fd5b506101a86103093660046107a4565b61068c565b61022b61031c366004610811565b61070a565b34801561032d57600080fd5b506101c761033c36600461084e565b600260209081526000928352604080842090915290825290205481565b6003805461036690610887565b80601f016020809104026020016040519081016040528092919081815260200182805461039290610887565b80156103df5780601f106103b4576101008083540402835291602001916103df565b820191906000526020600020905b8154815290600101906020018083116103c257829003601f168201915b505050505081565b3360008181526002602090815260408083206001600160a01b038716808552925280832085905551919290917f8c5be1e5ebec7d5bd14f71427d1e84f3dd0314c0f7b2291e5b200ac8c7c3b925906104429086815260200190565b60405180910390a35060015b92915050565b6001600160a01b03831660009081526002602090815260408083203384529091528120805483919083906104899084906108d7565b90915550506001600160a01b038416600090815260016020526040812080548492906104b69084906108d7565b90915550506001600160a01b038316600090815260016020526040812080548492906104e39084906108ea565b92505081905550826001600160a01b0316846001600160a01b03166000805160206108fe8339815191528460405161051d91815260200190565b60405180910390a35060019392505050565b610538336105e7565b33600090815260016020526040812080548392906105579084906108d7565b925050819055508060008082825461056f91906108ea565b9091555061057e905081610581565b50565b33600090815260016020526040812080548392906105a09084906108d7565b92505081905550806000808282546105b891906108d7565b909155505060405181815260009033906000805160206108fe833981519152906020015b60405180910390a350565b6040516001600160a01b038216903480156108fc02916000818181858888f1935050505015801561061c573d6000803e3d6000fd5b5050565b6004805461036690610887565b336000908152600160205260408120805483929061064c9084906108ea565b925050819055508060008082825461066491906108ea565b909155505060405181815233906000906000805160206108fe833981519152906020016105dc565b336000908152600160205260408120805483919083906106ad9084906108d7565b90915550506001600160a01b038316600090815260016020526040812080548492906106da9084906108ea565b90915550506040518281526001600160a01b0384169033906000805160206108fe83398151915290602001610442565b33600090815260016020526040812080548392906107299084906108ea565b925050819055508060008082825461066491906108d7565b600060208083528351808285015260005b8181101561076e57858101830151858201604001528201610752565b506000604082860101526040601f19601f8301168501019250505092915050565b6001600160a01b038116811461057e57600080fd5b600080604083850312156107b757600080fd5b82356107c28161078f565b946020939093013593505050565b6000806000606084860312156107e557600080fd5b83356107f08161078f565b925060208401356108008161078f565b929592945050506040919091013590565b60006020828403121561082357600080fd5b5035919050565b60006020828403121561083c57600080fd5b81356108478161078f565b9392505050565b6000806040838503121561086157600080fd5b823561086c8161078f565b9150602083013561087c8161078f565b809150509250929050565b600181811c9082168061089b57607f821691505b6020821081036108bb57634e487b7160e01b600052602260045260246000fd5b50919050565b634e487b7160e01b600052601160045260246000fd5b8181038181111561044e5761044e6108c1565b8082018082111561044e5761044e6108c156feddf252ad1be2c89b69c2b068fc378daa952ba7f163c4a11628f55a4df523b3efa264697066735822122039f1a5be0d79d911809f3fa075702adff4637eb37b8aee01258743364f85fcfc64736f6c63430008130033",
    "linkReferences": {}
  },
  "methodIdentifiers": {
    "allowance(address,address)": "dd62ed3e",
    "approve(address,uint256)": "095ea7b3",
    "balanceOf(address)": "70a08231",
    "burn(uint256)": "42966c68",
    "decimal()": "76809ce3",
    "deposit(uint256)": "b6b55f25",
    "getBalance()": "12065fe0",
    "mint(uint256)": "a0712d68",
    "name()": "06fdde03",
    "sendViaTransfer(address)": "636e082b",
    "symbol()": "95d89b41",
    "totalSupply()": "18160ddd",
    "transfer(address,uint256)": "a9059cbb",
    "transferFrom(address,address,uint256)": "23b872dd",
    "withdraw(uint256)": "2e1a7d4d"
  },
  "id": 17
}