{
  "abi": [
    {
      "inputs": [],
      "name": "count",
      "outputs": [
        {
          "internalType": "uint256",
          "name": "",
          "type": "uint256"
        }
      ],
      "stateMutability": "view",
      "type": "function"
    },
    {
      "inputs": [],
      "name": "dec",
      "outputs": [],
      "stateMutability": "nonpayable",
      "type": "function"
    },
    {
      "inputs": [],
      "name": "get",
      "outputs": [
        {
          "internalType": "uint256",
          "name": "",
          "type": "uint256"
        }
      ],
      "stateMutability": "view",
      "type": "function"
    },
    {
      "inputs": [],
      "name": "inc",
      "outputs": [],
      "stateMutability": "nonpayable",
      "type": "function"
    }
  ],
  "bytecode": {
    "object": "0x608060405234801561001057600080fd5b50610113806100206000396000f3fe6080604052348015600f57600080fd5b506004361060465760003560e01c806306661abd14604b578063371303c01460655780636d4ce63c14606d578063b3bcfa82146074575b600080fd5b605360005481565b60405190815260200160405180910390f35b606b607a565b005b6000546053565b606b6091565b6001600080828254608a919060b7565b9091555050565b6001600080828254608a919060cd565b634e487b7160e01b600052601160045260246000fd5b8082018082111560c75760c760a1565b92915050565b8181038181111560c75760c760a156fea2646970667358221220d6ececa09fdff03a360bd920647fa2f395e98e2b1810fd8862953a31722345e064736f6c63430008130033",
    "linkReferences": {}
  },
  "methodIdentifiers": {
    "count()": "06661abd",
    "dec()": "b3bcfa82",
    "get()": "6d4ce63c",
    "inc()": "371303c0"
  },
  "id": 17
}